:100000000C945D000C9485000C9485000C94850084
:100010000C9485000C9485000C9485000C9485004C
:100020000C9485000C9485000C9485000C9485003C
:100030000C9485000C9485000C9485000C9485002C
:100040000C94B4020C9485000C9485000C948500EB
:100050000C9485000C9485000C9485000C9485000C
:100060000C9485000C94850000000008000201003B
:100070000003040700000000000000000000000072
:10008000250028002B0000000000240027002A0083
:10009000040404040404040402020202020203032E
:1000A0000303030301020408102040800102040836
:1000B0001020010204081020490411241FBECFEFB4
:1000C000D8E0DEBFCDBF11E0A0E0B1E0E6EAFDE0A0
:1000D00002C005900D92AE33B107D9F721E0AEE32F
:1000E000B1E001C01D92A536B207E1F710E0CDE501
:1000F000D0E004C02197FE010E94C606CC35D1078E
:10010000C9F70E94FE020C94D1060C94000090E006
:10011000FC01EC55FF4F2491FC01E057FF4F849107
:10012000882399F090E0880F991FFC01EA57FF4F50
:10013000A591B491FC01E458FF4F859194918FB73C
:10014000F894EC91E22BEC938FBF0895CF92DF925D
:10015000EF92FF920F931F93CF93DF936C017A017D
:100160008B01C0E0D0E0CE15DF0589F0D8016D919C
:100170008D01D601ED91FC910190F081E02DC60139
:100180000995892B11F47E0102C02196ECCFC7019D
:10019000DF91CF911F910F91FF90EF90DF90CF9063
:1001A000089590E0FC01E859FF4F3491FC01EC55B3
:1001B000FF4F2491FC01E057FF4FE491EE2309F437
:1001C0003BC0332339F1333091F038F43130A9F0AA
:1001D000323001F584B58F7D12C0373091F0383060
:1001E000A1F03430B9F4809180008F7D03C08091FC
:1001F00080008F77809380000DC084B58F7784BD99
:1002000009C08091B0008F7703C08091B0008F7DCE
:100210008093B000F0E0EE0FFF1FE458FF4FA59170
:10022000B4918FB7F894EC91611103C020952E23FF
:1002300001C02E2B2C938FBF0895CF93DF93EC0139
:1002400060E08E810E94D10061E08E810E94D10029
:1002500060E08E810E94D1008BE891E00197F1F778
:10026000DF91CF910895CF92DF92EF92FF920F939B
:100270001F93CF93DF937C016C0187E0C80ED11CE4
:10028000C0E0D0E0062F10E0B8010C2E02C075953A
:1002900067950A94E2F76170F60181916F010E94FF
:1002A000D1002196C430D10579F7C701DF91CF91F4
:1002B0001F910F91FF90EF90DF90CF900C941D0154
:1002C000CF92DF92EF92FF920F931F93CF93DF9322
:1002D000EC01F62E642F8C810E94D1008D818F3F1E
:1002E00019F060E00E94D1008F850F2D10E084FF8F
:1002F00025C06E0187E0C80ED11CE12CF12CB8019D
:100300000E2C02C0759567950A94E2F76170F601AC
:1003100081916F010E94D100FFEFEF1AFF0A88E080
:10032000E816F10461F7CE01DF91CF911F910F9193
:10033000FF90EF90DF90CF900C941D01B80184E006
:10034000759567958A95E1F7CE010E9433016F2D6F
:10035000CE01DF91CF911F910F91FF90EF90DF9031
:10036000CF900C94330141E00E94600181E090E065
:10037000089540E00C946001EF92FF920F931F9359
:10038000CF93DF93EC01623018F08F8588608F8700
:100390006B8B1C8A80E48D8B80E18E8B80E58F8B4C
:1003A0008C810E9487008D818F3F11F00E94870011
:1003B0008E810E9487007E0187E0E80EF11C00E03C
:1003C00010E08F8584FD03C084E090E002C088E0E7
:1003D00090E00817190744F4F70181917F010E940A
:1003E00087000F5F1F4FEDCF8BE39DE00197F1F783
:1003F00060E08C810E94D10060E08E810E94D1007B
:100400008D818F3F19F060E00E94D1006F8564FDFF
:100410001DC063E0CE010E9433010BE416E4C80165
:100420000197F1F763E0CE010E943301C801019703
:10043000F1F763E0CE010E94330183E592E001977A
:10044000F1F762E0CE010E94330116C06062CE0176
:100450000E94B9018BE496E40197F1F76F85606221
:10046000CE010E94B90183E592E00197F1F76F8513
:100470006062CE010E94B9016F856062CE010E9468
:10048000B90184E0888B6CE0CE010E94B90161E083
:10049000CE010E94B9018BE39FE10197F1F782E061
:1004A000898B66E0CE01DF91CF911F910F91FF9074
:1004B000EF900C94B901089580E090E008950097C2
:1004C00069F0FC0101900020E9F73197AF01481B6A
:1004D000590BBC018DE491E00C94A60080E090E003
:1004E00008958F929F92AF92BF920F931F93CF93D5
:1004F000DF93CDB7DEB7A1970FB6F894DEBF0FBE7E
:10050000CDBF19A2423008F44AE08E010F5D1F4FA3
:10051000842E912CA12CB12CA50194010E94A4063B
:10052000E62FB901CA0101501109EA3014F4E05D67
:1005300001C0E95CD801EC93232B242B252B61F718
:10054000C8010E945F02A1960FB6F894DEBF0FBEED
:10055000CDBFDF91CF911F910F91BF90AF909F9032
:100560008F9008950E94CC061F920F920FB60F92A3
:1005700011242F933F938F939F93AF93BF938091B9
:10058000430190914401A0914501B0914601309101
:10059000420123E0230F2D3720F40196A11DB11D48
:1005A00005C026E8230F0296A11DB11D209342012C
:1005B0008093430190934401A0934501B093460179
:1005C00080913E0190913F01A0914001B091410185
:1005D0000196A11DB11D80933E0190933F01A09310
:1005E0004001B0934101BF91AF919F918F913F9195
:1005F0002F910F900FBE0F901F901895789484B58F
:10060000826084BD84B5816084BD85B5826085BD0E
:1006100085B5816085BD80916E00816080936E009C
:10062000109281008091810082608093810080918E
:10063000810081608093810080918000816080933F
:1006400080008091B10084608093B1008091B000FF
:1006500081608093B00080917A00846080937A00FA
:1006600080917A00826080937A0080917A00816024
:1006700080937A0080917A00806880937A0010924B
:10068000C10062E08DE491E00E94BC018CE091E049
:100690000E945F02C0E0D0E010E410937C008091E3
:1006A0007A00806480937A0080917A0086FDFCCF86
:1006B000609178008091790070E0782B70934C0104
:1006C00060934B01072E000C880B990B0E947D054F
:1006D00020E030E04AEF53E40E94320620E030ECA4
:1006E0004FE754E40E94DA04609347017093480195
:1006F0008093490190934A01E0916001E23010F447
:10070000E15001C0E1E0F0E0E35BFE4F64896D5F22
:1007100060688DE491E00E94B90189E191E00E9456
:100720005F02C0904701D0904801E0904901F090ED
:100730004A01A7019601C701B6010E949F068823BE
:1007400019F082E391E01AC046015701E894B7F826
:100750002FEF3FEF4FE75FE7C501B4010E949F060F
:1007600081110FC02FEF3FEF4FE75FE7C501B401E5
:100770000E94D50418162CF486E391E00E945F02D3
:1007800082C02FEF3FEF4FE75FE4C701B6010E9441
:100790002D0618161CF48AE391E0F0CF2FEF3FEFFF
:1007A0004FE75FECC701B6010E94D50487FDF3CF88
:1007B00020E030E0A901C701B6010E94D50487FFFF
:1007C0000FC0E0914D01F0914E010190F081E02DBC
:1007D0006DE28DE491E00995F7FAF094F7F8F09462
:1007E0002AE037ED43EA5BE3C701B6010E946904E2
:1007F0004B015C010E944C056B017C010E947B0552
:100800009B01AC01C501B4010E9468044B015C016D
:100810004AE0C701B6010E947102E0914D01F091DA
:100820004E010190F081E02D6EE28DE491E009959A
:1008300020E030E040E251E4C501B4010E943206FC
:100840004B015C010E944C056B01E12CF12C4AE04C
:10085000C701B6010E947102C701B6010E947B0563
:100860009B01AC01C501B4010E94680420E030E0A6
:1008700040E251E40E9432060E944C0580E090E084
:100880004AE00E947102209709F407CF0E940000FD
:1008900004CFEDE4F1E01382128284E091E09183D1
:1008A00080838CE084838FEF85838BE0868385E073
:1008B000878384E0808783E0818782E08287138654
:1008C000148615861686178661E0CF010C94BC014C
:1008D0005058BB27AA270E9480040C94F3050E945D
:1008E000E50538F00E94EC0520F039F49F3F19F43B
:1008F00026F40C94E2050EF4E095E7FB0C94DC057D
:10090000E92F0E94040658F3BA1762077307840799
:10091000950720F079F4A6F50C9426060EF4E095E0
:100920000B2EBA2FA02D0B01B90190010C01CA01A9
:10093000A0011124FF27591B99F0593F50F4503E54
:1009400068F11A16F040A22F232F342F4427585F46
:10095000F3CF469537952795A795F0405395C9F75E
:100960007EF41F16BA0B620B730B840BBAF0915016
:10097000A1F0FF0FBB1F661F771F881FC2F70EC0B5
:10098000BA0F621F731F841F48F487957795679588
:10099000B795F7959E3F08F0B0CF9395880F08F074
:1009A0009927EE0F9795879508950E94B80508F44A
:1009B00081E008950E94EE040C94F3050E94EC057A
:1009C00058F00E94E50540F029F45F3F29F00C94AF
:1009D000DC0551110C9427060C94E2050E940406D4
:1009E00068F39923B1F3552391F3951B550BBB275E
:1009F000AA2762177307840738F09F5F5F4F220FA3
:100A0000331F441FAA1FA9F335D00E2E3AF0E0E899
:100A100032D091505040E695001CCAF72BD0FE2FE3
:100A200029D0660F771F881FBB1F26173707480777
:100A3000AB07B0E809F0BB0B802DBF01FF2793582F
:100A40005F4F3AF09E3F510578F00C94DC050C9412
:100A500027065F3FE4F3983ED4F386957795679534
:100A6000B795F7959F5FC9F7880F911D9695879564
:100A700097F90895E1E0660F771F881FBB1F621783
:100A800073078407BA0720F0621B730B840BBA0B41
:100A9000EE1F88F7E09508950E940C0688F09F5796
:100AA00098F0B92F9927B751B0F0E1F0660F771F92
:100AB000881F991F1AF0BA95C9F714C0B13091F088
:100AC0000E942606B1E008950C942606672F782F21
:100AD0008827B85F39F0B93FCCF38695779567954D
:100AE000B395D9F73EF490958095709561957F4FB9
:100AF0008F4F9F4F0895E89409C097FB3EF490955F
:100B00008095709561957F4F8F4F9F4F9923A9F0E6
:100B1000F92F96E9BB279395F69587957795679575
:100B2000B795F111F8CFFAF4BB0F11F460FF1BC0B9
:100B30006F5F7F4F8F4F9F4F16C0882311F096E94C
:100B400011C0772321F09EE8872F762F05C06623FA
:100B500071F096E8862F70E060E02AF09A95660FB3
:100B6000771F881FDAF7880F9695879597F908956C
:100B7000990F0008550FAA0BE0E8FEEF16161706AE
:100B8000E807F907C0F012161306E407F50798F016
:100B9000621B730B840B950B39F40A2661F0232B2F
:100BA000242B252B21F408950A2609F4A140A695AB
:100BB0008FEF811D811D089597F99F6780E870E090
:100BC00060E008959FEF80EC089500240A941616C3
:100BD000170618060906089500240A94121613062B
:100BE000140605060895092E0394000C11F48823B9
:100BF00052F0BB0F40F4BF2B11F460FF04C06F5FD5
:100C00007F4F8F4F9F4F089557FD9058440F551FAA
:100C100059F05F3F71F04795880F97FB991F61F07E
:100C20009F3F79F087950895121613061406551FF5
:100C3000F2CF4695F1DF08C0161617061806991F61
:100C4000F1CF86957105610508940895E894BB2756
:100C500066277727CB0197F908950E94B80508F415
:100C60008FEF08950E9445060C94F3050E94E50558
:100C700038F00E94EC0520F0952311F00C94DC056F
:100C80000C94E20511240C9427060E94040670F3CC
:100C9000959FC1F3950F50E0551F629FF001729F21
:100CA000BB27F00DB11D639FAA27F00DB11DAA1F30
:100CB000649F6627B00DA11D661F829F2227B00D7D
:100CC000A11D621F739FB00DA11D621F839FA00D08
:100CD000611D221F749F3327A00D611D231F849F58
:100CE000600D211D822F762F6A2F11249F575040AF
:100CF0009AF0F1F088234AF0EE0FFF1FBB1F661F2A
:100D0000771F881F91505040A9F79E3F510580F0F2
:100D10000C94DC050C9427065F3FE4F3983ED4F373
:100D2000869577956795B795F795E7959F5FC1F796
:100D3000FE2B880F911D9695879597F908950E942F
:100D4000B805880B990B0895A1E21A2EAA1BBB1BAC
:100D5000FD010DC0AA1FBB1FEE1FFF1FA217B30787
:100D6000E407F50720F0A21BB30BE40BF50B661F9D
:100D7000771F881F991F1A9469F760957095809561
:100D800090959B01AC01BD01CF010895EE0FFF1FAF
:100D90000590F491E02D099481E090E0F8940C9492
:060DA000D106F894FFCF1C
:100DA60000000000B301A6005C025B02425453201F
:100DB6006964203D203132330074656D706572615F
:100DC600747572652072656164696E672069733A2D
:0E0DD60020006E616E00696E66006F7666002A
:00000001FF
